{
  "_format": "hh-sol-artifact-1",
  "contractName": "Lottery",
  "sourceName": "contracts/Lottery.sol",
  "abi": [
    {
      "inputs": [],
      "stateMutability": "nonpayable",
      "type": "constructor"
    },
    {
      "anonymous": false,
      "inputs": [
        {
          "indexed": false,
          "internalType": "address",
          "name": "buyer",
          "type": "address"
        }
      ],
      "name": "TicketPurchased",
      "type": "event"
    },
    {
      "anonymous": false,
      "inputs": [
        {
          "indexed": false,
          "internalType": "address",
          "name": "winner",
          "type": "address"
        },
        {
          "indexed": false,
          "internalType": "uint256",
          "name": "amountWon",
          "type": "uint256"
        }
      ],
      "name": "WinnerPicked",
      "type": "event"
    },
    {
      "inputs": [],
      "name": "drawInterval",
      "outputs": [
        {
          "internalType": "uint256",
          "name": "",
          "type": "uint256"
        }
      ],
      "stateMutability": "view",
      "type": "function"
    },
    {
      "inputs": [],
      "name": "enterLottery",
      "outputs": [],
      "stateMutability": "payable",
      "type": "function"
    },
    {
      "inputs": [],
      "name": "feePercentage",
      "outputs": [
        {
          "internalType": "uint256",
          "name": "",
          "type": "uint256"
        }
      ],
      "stateMutability": "view",
      "type": "function"
    },
    {
      "inputs": [],
      "name": "getPlayers",
      "outputs": [
        {
          "internalType": "address[]",
          "name": "",
          "type": "address[]"
        }
      ],
      "stateMutability": "view",
      "type": "function"
    },
    {
      "inputs": [],
      "name": "getTimeRemaining",
      "outputs": [
        {
          "internalType": "uint256",
          "name": "",
          "type": "uint256"
        }
      ],
      "stateMutability": "view",
      "type": "function"
    },
    {
      "inputs": [],
      "name": "getTotalFunds",
      "outputs": [
        {
          "internalType": "uint256",
          "name": "",
          "type": "uint256"
        }
      ],
      "stateMutability": "view",
      "type": "function"
    },
    {
      "inputs": [],
      "name": "lastDrawTime",
      "outputs": [
        {
          "internalType": "uint256",
          "name": "",
          "type": "uint256"
        }
      ],
      "stateMutability": "view",
      "type": "function"
    },
    {
      "inputs": [],
      "name": "manager",
      "outputs": [
        {
          "internalType": "address",
          "name": "",
          "type": "address"
        }
      ],
      "stateMutability": "view",
      "type": "function"
    },
    {
      "inputs": [],
      "name": "maxTickets",
      "outputs": [
        {
          "internalType": "uint256",
          "name": "",
          "type": "uint256"
        }
      ],
      "stateMutability": "view",
      "type": "function"
    },
    {
      "inputs": [
        {
          "internalType": "uint256",
          "name": "",
          "type": "uint256"
        }
      ],
      "name": "players",
      "outputs": [
        {
          "internalType": "address",
          "name": "",
          "type": "address"
        }
      ],
      "stateMutability": "view",
      "type": "function"
    },
    {
      "inputs": [],
      "name": "ticketPrice",
      "outputs": [
        {
          "internalType": "uint256",
          "name": "",
          "type": "uint256"
        }
      ],
      "stateMutability": "view",
      "type": "function"
    },
    {
      "inputs": [],
      "name": "totalFunds",
      "outputs": [
        {
          "internalType": "uint256",
          "name": "",
          "type": "uint256"
        }
      ],
      "stateMutability": "view",
      "type": "function"
    },
    {
      "inputs": [],
      "name": "withdraw",
      "outputs": [],
      "stateMutability": "nonpayable",
      "type": "function"
    }
  ],
  "bytecode": "0x60806040526802b5e3af16b1880000600155610e106004556064600555600a60065534801561002d57600080fd5b50336000806101000a81548173ffffffffffffffffffffffffffffffffffffffff021916908373ffffffffffffffffffffffffffffffffffffffff16021790555042600381905550610fba806100846000396000f3fe6080604052600436106100c25760003560e01c80639b8947031161007f578063c1af578511610059578063c1af578514610236578063dac6270d14610240578063eb8bbd281461026b578063f71d96cb14610296576100c2565b80639b894703146101b5578063a001ecdd146101e0578063bc06c4cc1461020b576100c2565b80631209b1f6146100c75780633ccfd60b146100f2578063481c6a75146101095780635cbbd635146101345780638b5b9ccc1461015f578063968ed6001461018a575b600080fd5b3480156100d357600080fd5b506100dc6102d3565b6040516100e99190610940565b60405180910390f35b3480156100fe57600080fd5b506101076102d9565b005b34801561011557600080fd5b5061011e6103d0565b60405161012b919061099c565b60405180910390f35b34801561014057600080fd5b506101496103f4565b6040516101569190610940565b60405180910390f35b34801561016b57600080fd5b506101746103fa565b6040516101819190610a75565b60405180910390f35b34801561019657600080fd5b5061019f610488565b6040516101ac9190610940565b60405180910390f35b3480156101c157600080fd5b506101ca61048e565b6040516101d79190610940565b60405180910390f35b3480156101ec57600080fd5b506101f5610494565b6040516102029190610940565b60405180910390f35b34801561021757600080fd5b5061022061049a565b60405161022d9190610940565b60405180910390f35b61023e6104a0565b005b34801561024c57600080fd5b506102556105d5565b6040516102629190610940565b60405180910390f35b34801561027757600080fd5b5061028061061a565b60405161028d9190610940565b60405180910390f35b3480156102a257600080fd5b506102bd60048036038101906102b89190610ac8565b610624565b6040516102ca919061099c565b60405180910390f35b60015481565b60008054906101000a900473ffffffffffffffffffffffffffffffffffffffff1673ffffffffffffffffffffffffffffffffffffffff163373ffffffffffffffffffffffffffffffffffffffff1614610367576040517f08c379a000000000000000000000000000000000000000000000000000000000815260040161035e90610b52565b60405180910390fd5b60008054906101000a900473ffffffffffffffffffffffffffffffffffffffff1673ffffffffffffffffffffffffffffffffffffffff166108fc479081150290604051600060405180830381858888f193505050501580156103cd573d6000803e3d6000fd5b50565b60008054906101000a900473ffffffffffffffffffffffffffffffffffffffff1681565b60035481565b6060600280548060200260200160405190810160405280929190818152602001828054801561047e57602002820191906000526020600020905b8160009054906101000a900473ffffffffffffffffffffffffffffffffffffffff1673ffffffffffffffffffffffffffffffffffffffff1681526020019060010190808311610434575b5050505050905090565b60075481565b60055481565b60065481565b60045481565b60015434146104e4576040517f08c379a00000000000000000000000000000000000000000000000000000000081526004016104db90610bbe565b60405180910390fd5b6002339080600181540180825580915050600190039060005260206000200160009091909190916101000a81548173ffffffffffffffffffffffffffffffffffffffff021916908373ffffffffffffffffffffffffffffffffffffffff16021790555061055c3460075461066390919063ffffffff16565b6007819055507f23443ac3afaec974c2d4368824912f61a50fee541bcc94ec52414ba6a9b14aab33604051610591919061099c565b60405180910390a16005546002805490501015806105c557506105c160045460035461066390919063ffffffff16565b4210155b156105d3576105d2610679565b5b565b600080610601426105f360045460035461066390919063ffffffff16565b61087190919063ffffffff16565b905060008111610612576000610614565b805b91505090565b6000600754905090565b6002818154811061063457600080fd5b906000526020600020016000915054906101000a900473ffffffffffffffffffffffffffffffffffffffff1681565b600081836106719190610c0d565b905092915050565b6000600280549050116106c1576040517f08c379a00000000000000000000000000000000000000000000000000000000081526004016106b890610c8d565b60405180910390fd5b60006002805490506106d1610887565b6106db9190610cdc565b90506000600282815481106106f3576106f2610d0d565b5b9060005260206000200160009054906101000a900473ffffffffffffffffffffffffffffffffffffffff169050600061074c606461073e6006546007546108bd90919063ffffffff16565b6108d390919063ffffffff16565b905060006107658260075461087190919063ffffffff16565b905060008054906101000a900473ffffffffffffffffffffffffffffffffffffffff1673ffffffffffffffffffffffffffffffffffffffff166108fc839081150290604051600060405180830381858888f193505050501580156107cd573d6000803e3d6000fd5b508273ffffffffffffffffffffffffffffffffffffffff166108fc829081150290604051600060405180830381858888f19350505050158015610814573d6000803e3d6000fd5b507f64791dbae5677392ba76761a5273633cec8f1d9d8cfe808da7bac6ef16a880be8382604051610846929190610d3c565b60405180910390a16002600061085c91906108e9565b60006007819055504260038190555050505050565b6000818361087f9190610d65565b905092915050565b60004442600260405160200161089f93929190610ed8565b6040516020818303038152906040528051906020012060001c905090565b600081836108cb9190610f11565b905092915050565b600081836108e19190610f53565b905092915050565b5080546000825590600052602060002090810190610907919061090a565b50565b5b8082111561092357600081600090555060010161090b565b5090565b6000819050919050565b61093a81610927565b82525050565b60006020820190506109556000830184610931565b92915050565b600073ffffffffffffffffffffffffffffffffffffffff82169050919050565b60006109868261095b565b9050919050565b6109968161097b565b82525050565b60006020820190506109b1600083018461098d565b92915050565b600081519050919050565b600082825260208201905092915050565b6000819050602082019050919050565b6109ec8161097b565b82525050565b60006109fe83836109e3565b60208301905092915050565b6000602082019050919050565b6000610a22826109b7565b610a2c81856109c2565b9350610a37836109d3565b8060005b83811015610a68578151610a4f88826109f2565b9750610a5a83610a0a565b925050600181019050610a3b565b5085935050505092915050565b60006020820190508181036000830152610a8f8184610a17565b905092915050565b600080fd5b610aa581610927565b8114610ab057600080fd5b50565b600081359050610ac281610a9c565b92915050565b600060208284031215610ade57610add610a97565b5b6000610aec84828501610ab3565b91505092915050565b600082825260208201905092915050565b7f4f6e6c79206d616e616765722063616e2063616c6c2074686973000000000000600082015250565b6000610b3c601a83610af5565b9150610b4782610b06565b602082019050919050565b60006020820190508181036000830152610b6b81610b2f565b9050919050565b7f496e636f7272656374207469636b657420707269636500000000000000000000600082015250565b6000610ba8601683610af5565b9150610bb382610b72565b602082019050919050565b60006020820190508181036000830152610bd781610b9b565b9050919050565b7f4e487b7100000000000000000000000000000000000000000000000000000000600052601160045260246000fd5b6000610c1882610927565b9150610c2383610927565b9250828201905080821115610c3b57610c3a610bde565b5b92915050565b7f4e6f20706c617965727320696e20746865206c6f747465727900000000000000600082015250565b6000610c77601983610af5565b9150610c8282610c41565b602082019050919050565b60006020820190508181036000830152610ca681610c6a565b9050919050565b7f4e487b7100000000000000000000000000000000000000000000000000000000600052601260045260246000fd5b6000610ce782610927565b9150610cf283610927565b925082610d0257610d01610cad565b5b828206905092915050565b7f4e487b7100000000000000000000000000000000000000000000000000000000600052603260045260246000fd5b6000604082019050610d51600083018561098d565b610d5e6020830184610931565b9392505050565b6000610d7082610927565b9150610d7b83610927565b9250828203905081811115610d9357610d92610bde565b5b92915050565b6000819050919050565b610db4610daf82610927565b610d99565b82525050565b600081549050919050565b600081905092915050565b60008190508160005260206000209050919050565b610dee8161097b565b82525050565b6000610e008383610de5565b60208301905092915050565b60008160001c9050919050565b600073ffffffffffffffffffffffffffffffffffffffff82169050919050565b6000610e4c610e4783610e0c565b610e19565b9050919050565b6000610e5f8254610e39565b9050919050565b6000600182019050919050565b6000610e7e82610dba565b610e888185610dc5565b9350610e9383610dd0565b8060005b83811015610ecb57610ea882610e53565b610eb28882610df4565b9750610ebd83610e66565b925050600181019050610e97565b5085935050505092915050565b6000610ee48286610da3565b602082019150610ef48285610da3565b602082019150610f048284610e73565b9150819050949350505050565b6000610f1c82610927565b9150610f2783610927565b9250828202610f3581610927565b91508282048414831517610f4c57610f4b610bde565b5b5092915050565b6000610f5e82610927565b9150610f6983610927565b925082610f7957610f78610cad565b5b82820490509291505056fea2646970667358221220f04aba1922ee3e8bf6da3d70dc1c4838f5a1b41ba6c66400d55cd8485b9cd69e64736f6c63430008120033",
  "linkReferences": {},
  "deployedLinkReferences": {}
}